:100000000C942A000C9434000C9434000C943400AA
:100010000C9434000C9434000C9434000C94340090
:100020000C9434000C9434000C9434000C9436007E
:100030000C9434000C9434000C9434000C94340070
:100040000C9434000C9434000C9434000C94340060
:100050000C94340011241FBECFE5D8E0DEBFCDBF25
:100060000E9448000C9452000C9400001F920F92C2
:100070000FB60F9211248F939F9392B384E0892738
:1000800082BB9F918F910F900FBE0F901F9018957C
:100090008FEF81BB789483B7816083BF89B781601C
:0800A00089BFFFCFF894FFCFE8
:00000001FF
